:1000000045C0000061C000005FC000005DC000008E
:100010005BC0000059C0000057C00000F3C10000E1
:1000200053C0000051C000004FC000004DC0000090
:1000300075C5000049C0000047C0000045C0000071
:1000400043C0000041C00000A4C100003DC000004A
:100050003BC00000E5C1000037C0000035C0000013
:1000600033C0000031C000002FC000002DC00000D0
:100070002BC0000029C0000027C0000025C00000E0
:1000800023C0000021C000001FC0000011241FBEBB
:10009000CFEFD0E1DEBFCDBF11E0A0E0B1E0E8EBF3
:1000A000F4E100E00BBF02C007900D92A038B10749
:1000B000D9F722E0A0E8B1E001C01D92A83FB20745
:1000C000E1F74CD60C945A0A9BCF1BB828E92AB901
:1000D00026E020939500603825E27207810591059E
:1000E00029F41092900087E689B90895603428E3D6
:1000F00072078105910529F41092900084E489B972
:10010000089561152BE472078105910529F4109279
:10011000900083E389B90895603820E7720781056C
:10012000910529F41092900082E289B90895611531
:1001300026E972078105910529F41092900089E162
:1001400089B90895611521EE72078105910529F499
:100150001092900080E189B9089561152CE2720730
:1001600021E08207910529F4109290008CE089B972
:1001700008956115724C8140910521F41092900010
:1001800088E089B9089510929B0028E920939A008D
:1001900026E020939D00603825E2720781059105D5
:1001A00031F41092980087E68093990008956034A6
:1001B00028E372078105910531F41092980084E4D8
:1001C00080939900089561152BE4720781059105CC
:1001D00031F41092980083E3809399000895603879
:1001E00020E772078105910531F41092980082E2B0
:1001F000809399000895611526E97207810591059C
:1002000031F41092980089E1809399000895611566
:1002100021EE72078105910531F41092980080E17A
:1002200080939900089561152CE2720721E08207FE
:10023000910531F4109298008CE080939900089514
:100240006115724C8140910529F41092980088E064
:100250008093990008955D9BFECF8CB90895CF934C
:10026000DF93EC018881882329F02196F4DF8991BE
:100270008111FCCFDF91CF910895EBE9F0E09081FF
:1002800095FFFDCF80939C000895EFE3FFE1319748
:10029000F1F700C0000015BA95B3282F207F922BEC
:1002A00095BBF5E0FA95F1F70000AA9A35E03A958A
:1002B000F1F70000AA9815BA25B3E0E18E9FC001BE
:1002C0001124822B85BBF5E0FA95F1F70000AA9A7C
:1002D00035E03A95F1F70000AA9808958FEF84BBB6
:1002E00015BA8FE59AEE0197F1F700C0000080E2A1
:1002F00085BBEFE1FEE43197F1F700C0000085BB5C
:10030000EFE8F1E03197F1F700C0000085BBBDDFF9
:1003100088E2BBDF8CE0B9DF81E0B7DF86E0B5CFF4
:100320000895EFE3FFE13197F1F700C0000021E00D
:1003300025BB95B3382F307F932B95BBF5E0FA950D
:10034000F1F70000AA9A35E03A95F1F70000AA9873
:1003500025BB25B3E0E18E9FC0011124822B85BB14
:10036000F5E0FA95F1F70000AA9A35E03A95F1F731
:100370000000AA980895CF93DF93EC018881882329
:1003800029F02196CEDF89918111FCCFDF91CF91A9
:1003900008951F920F920FB60F9211240BB60F9271
:1003A0002F934F935F938F939F93EF93FF9380913E
:1003B0009301909194012CB1FC01E25DFD4F2083EB
:1003C000AC014F5F5F4F50939401409393012A30EB
:1003D00059F4FC01E25DFD4F1082109294011092DD
:1003E000930181E080938A01FF91EF919F918F911A
:1003F0005F914F912F910F900BBE0F900FBE0F90FA
:100400001F9018951F920F920FB60F921124F89417
:100410001092830178940F900FBE0F901F90189543
:100420001F920F920FB60F9211242F933F938F9329
:100430009F9324B185B190E0982F8827820F911D5A
:1004400090939201809391018233910524F581E08C
:100450008093870180918801823020F483E080932B
:10046000880117C08330A9F480911E0190911F016B
:100470008D3091053CF49093A2018093A1011092DC
:10048000880107C09093A2018093A10181E080932D
:100490008801339822C09C012D5331092B3331053B
:1004A00098F480918601811106C081E080938601D5
:1004B0008093850107C0813029F41092860182E083
:1004C00080938501339809C08358910989339240FC
:1004D00020F481E08093890133989F918F913F911F
:1004E0002F910F900FBE0F901F90189580ECCDDECE
:1004F00080918801811104C082E291E03CDF0BC051
:10050000813021F485E291E036DF05C0833019F4B3
:1005100088E291E030DF83ECB8DE809188018111C0
:1005200009C080912001909121019093A2018093B4
:10053000A10113C0813049F480919F019091A001E5
:100540009093A2018093A10108C080911E01909117
:100550001F019093A2018093A101809193028F9338
:10056000809192028F938091A4018F938091A30137
:100570008F938091A2018F938091A1018F938BE241
:1005800091E09F938F9381EC91E09F938F93B7D4E9
:1005900081EC91E0F0DE8DB79EB70A960FB6F89425
:1005A0009EBF0FBE8DBF08958091950190919601D9
:1005B000FC01EE0FFF1FE050FF4F40815181209161
:1005C0001C0130911D0142175307A9F421E030E0CE
:1005D00030931D0120931C0120911A0130911B01C1
:1005E0002F5F3F4F30931B0120931A010196909388
:1005F0009601809395014091180150911901CA010B
:1006000083709927892B51F19A0136952795369554
:100610002795ABE7B4E12BD49695879564E6689F60
:100620009001699F300D112442175307B9F09A01C8
:10063000329522952F7023273F702327AEE3BAE02F
:1006400016D420E931E0BC01629FC001639F900D88
:10065000729F900D11244817590739F48EE190E0EC
:1006600090930301809302011EC08091020190913A
:1006700003014F97C1F481E090E090931D018093B6
:100680001C0180911A0190911B01019690931B010E
:1006900080931A0180919501909196010196909313
:1006A00096018093950180911A0190911B010D97FD
:1006B00061F481E090E090931B0180931A014F5FF9
:1006C0005F4F5093190140931801089580E8DDDDD4
:1006D00080911D018F9380911C018F9380911B014C
:1006E0008F9380911A018F93809119018F9380913C
:1006F00018018F938AE391E09F938F9385EA91E0AD
:100700009F938F93FCD385EA91E035DE8DE8BDDDC4
:100710008DB79EB70A960FB6F8949EBF0FBE8DBFD9
:1007200080918601813021F489E491E024CE0895FE
:100730008DE491E020CE0895CF93DF9380918A01DC
:10074000813009F0E2C080912E02843209F0DBC0D2
:1007500080912F02833499F5EEE2F2E0828190E0FD
:10076000C0979C01220F331F880F991F880F991F74
:10077000880F991F820F931F2381820F911D80562E
:10078000984F909319018093180182E392E092D3DD
:10079000EC0184E392E08ED39E01281B390BC90142
:1007A00064E670E051D370931B0160931A0184E3F7
:1007B00092E080D390931D0180931C01A4C08435E6
:1007C00009F05AC0809130028134E9F41092880116
:1007D000EEE2F2E0838190E0C0979C01220F331F8C
:1007E000880F991F880F991F880F991F820F931FD9
:1007F000248130E020533109820F931F909321010F
:10080000809320011FC08035E9F481E08093880146
:10081000EEE2F2E0838190E0C0979C01220F331F4B
:10082000880F991F880F991F880F991F820F931F98
:10083000248130E020533109820F931F9093A0014F
:1008400080939F0183E392E035D3EC0185E392E04E
:1008500031D39E01281B390BC90164E670E0F4D244
:100860007093A4016093A30185E392E023D3909356
:1008700093028093920247C0813409F044C0809172
:100880003002813429F4109298011092970108C027
:10089000803531F481E090E0909398018093970146
:1008A000EEE2F2E0838190E0C0979C01220F331FBB
:1008B000880F991F880F991F880F991F820F931F08
:1008C000248130E020533109820F931F90939E01C1
:1008D00080939D0183E392E0EDD2EC0185E392E009
:1008E000E9D29E01281B390BC90164E670E0ACD245
:1008F00070939C0160939B0185E392E0DBD290931F
:100900009A018093990110928A01DF91CF91089505
:1009100080E8BBDC81E591E02EDD80ECB6DC8091E7
:10092000970190919801009721F482E291E023DDF4
:1009300005C0019719F485E291E01DDD83ECA5DC8B
:1009400080919A018F93809199018F9380919C015E
:100950008F9380919B018F9380919E018F938091C3
:100960009D018F938BE291E09F938F9381EB91E0B8
:100970009F938F93C4D281EB91E0FDDC8DB79EB73E
:100980000A960FB6F8949EBF0FBE8DBF0895809152
:100990008901811103C09ADEA9CD0895813071F4D7
:1009A000B7DF80918D0190918E01029739F41092FA
:1009B0008E0110928D0110928901339A08958091D1
:1009C0008401811114C08091800190918101892B53
:1009D00029F18CED95E0909387008093860081E06B
:1009E00080938201109281011092800108958130DC
:1009F000A9F48091800190918101892B79F487E895
:100A000093E1909387008093860081E08093820138
:100A100081E090E09093810180938001089580911E
:100A2000880190E0209197013091980182179307F7
:100A300021F520919D0130919E018091A10190911D
:100A4000A20128173907C9F420919B0130919C011C
:100A50008091A3019091A4012817390771F4809126
:100A6000920290919302892B41F48091860181300A
:100A700021F48093830180938201089580918601FF
:100A8000813021F58091A3019091A401892BF1F48B
:100A90008091A1019091A2018130910581F4809112
:100AA0009202909193020197029780F488CF089563
:100AB000880F991F821793074CF081CF08952091DA
:100AC0009202309193021216130694F308951F9325
:100AD000CF93DF93182F8EE7D0DB8FEFCEDB86E04E
:100AE000CCDB812FCADB80E0C8DB80E0C6DB1930BD
:100AF00039F080E0C2DBCBEFDEEFC11BD10904C0CF
:100B000082E0BBDBC0EFDEEF8D2FB7DB8C2FB5DBD8
:100B10008FEEB3DBDF91CF911F9108951F920F925B
:100B20000FB60F9211240BB60F922F933F934F9352
:100B30005F936F937F938F939F93AF93BF93EF9345
:100B4000FF93F89480918901813021F08091850193
:100B5000813099F480918D0190918E01019690934E
:100B60008E0180938D010397E1F41092850110921C
:100B70008E0110928D01339A14C0823091F48091CD
:100B80008D0190918E01019690938E0180938D013D
:100B9000039739F41092850110928E0110928D0105
:100BA000339A809187018130A1F480918F019091D7
:100BB000900101968230910529F0909390018093E5
:100BC0008F0107C01092900110928F01109287013F
:100BD000339A809192029091930201968C33910501
:100BE00029F0909393028093920257C0109293023F
:100BF000109292028091A3019091A40101968C33EE
:100C0000910529F09093A4018093A30146C010920E
:100C1000A4011092A30180912001909121010196DD
:100C20008D30910529F0909321018093200108C017
:100C300081E090E0909321018093200180938801CE
:100C400080919F019091A00101968C30910529F02F
:100C50009093A00180939F0106C01092A001109272
:100C60009F011092880180911E0190911F010196B1
:100C70008831910529F090931F0180931E010DC0CA
:100C800010921F0110921E0180911C0190911D0174
:100C9000019690931D0180931C0180918601813003
:100CA00009F040C080918401813011F58091920259
:100CB0009091930281709078992324F401978E6F1C
:100CC0009F6F0196019771F580918B0190918C0136
:100CD00001968130910529F090938C0180938B01CE
:100CE00021C010928C0110928B01109284011AC0C5
:100CF000811118C08091920280FD14C080918B01F7
:100D000090918C0101968130910529F090938C018E
:100D100080938B0107C010928C0110928B0181E0AF
:100D20008093840180918201813021F48DE0CFDEB7
:100D3000109282017894FF91EF91BF91AF919F91B2
:100D40008F917F916F915F914F913F912F910F9074
:100D50000BBE0F900FBE0F901F9018958FEF84BBA6
:100D600012B8C0E4C3B980E28ABF89B7806489BF82
:100D70001FBC8DE08EBD88E09DE39BBD8ABD87B71B
:100D8000806187BF139A82E880938B008AE1809309
:100D90008A0087E893E190938700809386008FE331
:100DA0009CE9909381008093800060E875E280E088
:100DB00090E08BD960E875E280E090E0E4D9C7B9B3
:100DC0008FEE86B98BDA8CE591E0D5DA80EC5DDACE
:100DD00087E691E0D0DA2FEF83EC99E02150804054
:100DE0009040E1F700C0000089E071DE789403E7ED
:100DF00011E0CAECD1E08091A4018F938091A3010E
:100E00008F93809193028F93809192028F931F937F
:100E10000F93DF93CF9373D0CE0121DA8DE791E06A
:100E20001EDA8ADCC1DBB3DDFADD8DB79EB708962A
:100E30000FB6F8949EBF0FBE8DBF809183018130A5
:100E400009F4BDDD1BDED7CF97FB072E16F4009407
:100E500006D077FD08D01AD007FC05D03EF4909557
:100E600081959F4F0895709561957F4F0895A29F3A
:100E7000B001B39FC001A39F700D811D1124911D6E
:100E8000B29F700D811D1124911D0895AA1BBB1BDB
:100E900051E107C0AA1FBB1FA617B70710F0A61B7A
:100EA000B70B881F991F5A95A9F780959095BC019B
:100EB000CD010895FC0188279927E89421912032DB
:100EC000E9F3293010F02E30C8F32B3239F02D32EF
:100ED00031F4689403C00BD0820F911D21912053EF
:100EE0002A30C8F31EF4909581959F4F08957AE0BB
:100EF000979F902D879F802D910D112408950F931A
:100F00001F93CF93DF93CDB7DEB72E970FB6F8942C
:100F1000DEBF0FBECDBF0D891E8986E08C831A838C
:100F200009838FEF9FE79E838D83AE01475E5F4FFE
:100F30006F89788DCE01019610D0EF81F885E00F92
:100F4000F11F10822E960FB6F894DEBF0FBECDBFF4
:100F5000DF91CF911F910F9108952F923F924F9261
:100F60005F926F927F928F929F92AF92BF92CF9239
:100F7000DF92EF92FF920F931F93CF93DF93CDB742
:100F8000DEB72B970FB6F894DEBF0FBECDBF6C0156
:100F90007B018A01FC0117821682838181FFBFC118
:100FA000CE0101963C01F6019381F70193FD8591F5
:100FB00093FF81917F01882309F4ADC1853239F413
:100FC00093FD859193FF81917F01853221F4B601D4
:100FD00090E0D6D1E8CF912C212C312CFFE1F315F4
:100FE000D8F08B3279F038F4803279F08332A1F482
:100FF000232D20611DC08D3261F0803369F4232DD3
:10100000216016C0832D8260382EE32DE4603E2ED1
:101010002AC0F32DF8601DC037FC2DC020ED280F2D
:101020002A3040F08E32B9F436FC75C1232D20648D
:10103000322E19C036FE06C08AE0989E200D11247B
:10104000922E11C0EAE02E9E200D1124222EF32DA7
:10105000F0623F2E08C08C3621F4832D8068382E34
:1010600002C0883641F4F70193FD859193FF819189
:101070007F018111B3CF982F9F7D9554933028F431
:101080000C5F1F4F9FE399830DC0833631F0833788
:1010900071F0833509F055C020C0F8018081898343
:1010A0000E5F1F4F88248394912C530112C0280196
:1010B000F2E04F0E511CF801A080B18036FE03C053
:1010C000692D70E002C06FEF7FEFC5014ED14C017A
:1010D0008201F32DFF773F2E15C0280122E0420E3A
:1010E000511CF801A080B18036FE03C0692D70E06C
:1010F00002C06FEF7FEFC5012DD14C01F32DF068D9
:101100003F2E820133FC19C0822D90E0881699068B
:10111000A0F4B60180E290E033D12A94F5CFF50136
:1011200037FC859137FE81915F01B60190E028D1AF
:1011300021102A9421E0821A91088114910479F7F0
:10114000E1C0843611F0893639F5F80137FE07C061
:1011500060817181828193810C5F1F4F08C0608123
:101160007181072E000C880B990B0E5F1F4FF32D1A
:10117000FF763F2E97FF09C09095809570956195F9
:101180007F4F8F4F9F4FF0683F2E2AE030E0A30142
:1011900033D1882E861844C0853731F4232D2F7E15
:1011A000B22E2AE030E025C0932D997FB92E8F36DC
:1011B000C1F018F4883579F0AEC0803719F088375F
:1011C00021F0A9C0E92FE061BE2EB4FE0DC0FB2DB9
:1011D000F460BF2E09C034FE0AC0292F2660B22E4B
:1011E00006C028E030E005C020E130E002C020E188
:1011F00032E0F801B7FE07C060817181828193817E
:101200000C5F1F4F06C06081718180E090E00E5F2F
:101210001F4FA301F1D0882E8618FB2DFF773F2E9C
:1012200036FE0DC0232D2E7FA22E891458F434FED5
:101230000BC032FC09C0832D8E7EA82E05C0B82CB1
:10124000A32C03C0B82C01C0B92CA4FE0FC0FE0112
:10125000E80DF11D8081803321F49A2D997EA92E0D
:1012600009C0A2FE06C0B394B39404C08A2D867848
:1012700009F0B394A3FC10C0A0FE06C0B21480F421
:10128000280C922C9B180DC0B21458F4B60180E2C1
:1012900090E076D0B394F8CFB21418F42B1802C0B3
:1012A000982C212CA4FE0FC0B60180E390E068D0FA
:1012B000A2FE16C0A1FC03C088E790E002C088E54A
:1012C00090E0B6010CC08A2D867851F0A1FE02C0D4
:1012D0008BE201C080E2A7FC8DE2B60190E050D025
:1012E000891430F4B60180E390E04AD09A94F8CFA4
:1012F0008A94F301E80DF11D8081B60190E040D0A1
:101300008110F6CF222009F44ECEB60180E290E0A3
:1013100037D02A94F7CFF6018681978102C08FEFEC
:101320009FEF2B960FB6F894DEBF0FBECDBFDF91B7
:10133000CF911F910F91FF90EF90DF90CF90BF90D2
:10134000AF909F908F907F906F905F904F903F9065
:101350002F900895FC010590615070400110D8F75E
:10136000809590958E0F9F1F0895FC0161507040ED
:1013700001900110D8F7809590958E0F9F1F0895CA
:101380000F931F93CF93DF93FB01238121FD03C0B4
:101390008FEF9FEF2CC022FF16C04681578124811A
:1013A00035814217530744F4A081B1819D012F5F1D
:1013B0003F4F318320838C93268137812F5F3F4FAE
:1013C0003783268314C08B01EC01FB010084F18577
:1013D000E02D0995892BE1F6D80116968D919C9107
:1013E0001797019617969C938E931697CE01DF91CF
:1013F000CF911F910F910895FA01AA27283051F13A
:10140000203181F1E8946F936E7F6E5F7F4F8F4F35
:101410009F4FAF4FB1E03ED0B4E03CD0670F781F94
:10142000891F9A1FA11D680F791F8A1F911DA11D79
:101430006A0F711D811D911DA11D20D009F46894B2
:101440003F912AE0269F11243019305D3193DEF65A
:10145000CF010895462F4770405D4193B3E00FD010
:10146000C9F7F6CF462F4F70405D4A3318F0495DFB
:1014700031FD4052419302D0A9F7EACFB4E0A695DE
:101480009795879577956795BA95C9F70097610500
:10149000710508959B01AC010A2E06945795479556
:1014A00037952795BA95C9F7620F731F841F951F4B
:0814B000A01D0895F894FFCF80
:1014B80020001D0020001F0020001F002000200029
:1014C8001F0020001F002000E40701001E000C0080
:1014D8000C00414D00504D00202000253032643A68
:1014E800253032643A2530326400253034642D25A5
:1014F8003032642D2530326400204F4E004F46466E
:1015080000416C61726D204D6F6465003230313876
:101518002D30372D313400414D2031323A30303AB8
:101528003030002564202C2025642C20000A0D0072
:00000001FF
